:100000000C945E000C9486000C9486000C94860080
:100010000C9486000C9486000C9486000C94860048
:100020000C9486000C9486000C9486000C94860038
:100030000C9486000C9486000C9486000C94860028
:100040000C9499020C9486000C9409030C94E3021E
:100050000C9486000C9486000C9486000C94860008
:100060000C9486000C948600000000080002010039
:100070000003040700000000000000000000000072
:10008000250028002B0000000000240027002A0083
:10009000040404040404040402020202020203032E
:1000A0000303030301020408102040800102040836
:1000B00010200102040810203B03FD0411241FBE80
:1000C000CFEFD8E0DEBFCDBF22E0A2EAB1E001C0B1
:1000D0001D92A235B207E1F711E0A0E0B1E0E6E938
:1000E000FEE002C005900D92A23AB107D9F710E0E8
:1000F000CDE5D0E004C02197FE010E943D05CC353E
:10010000D107C9F70E9476030C943E070C940000B7
:1001100090E0FC01EC55FF4F249180579F4FFC016C
:100120008491882399F090E0880F991FFC01EA5789
:10013000FF4FA591B491FC01E458FF4F8591949134
:100140008FB7F894EC91E22BEC938FBF089590E079
:10015000FC01E859FF4F2491FC01EC55FF4F34910D
:10016000FC01E057FF4FE491EE23C9F0222339F060
:10017000233001F1A8F4213019F1223029F1F0E007
:10018000EE0FFF1FE458FF4FA591B4918FB7F8947D
:10019000EC91611126C030953E233C938FBF0895AA
:1001A0002730A9F02830C9F0243049F78091800029
:1001B0008F7D03C0809180008F7780938000DFCF98
:1001C00084B58F7784BDDBCF84B58F7DFBCF8091E5
:1001D000B0008F778093B000D2CF8091B0008F7D38
:1001E000F9CF3E2BDACF3FB7F8948091A7019091D9
:1001F000A801A091A901B091AA0126B5A89B05C0AC
:100200002F3F19F00196A11DB11D3FBFBA2FA92F95
:10021000982F8827BC01CD01620F711D811D911D92
:1002200042E0660F771F881F991F4A95D1F70895FE
:10023000AF92BF92CF92DF92EF92FF920F931F93F4
:10024000CF93DF936C017B018B01040F151FEB0132
:100250005E01AE18BF08C017D10759F06991D601E9
:10026000ED91FC910190F081E02DC6010995892B5B
:1002700079F7C501DF91CF911F910F91FF90EF901A
:10028000DF90CF90BF90AF900895FC01538D448DC7
:10029000252F30E0842F90E0821B930B541710F031
:1002A000CF96089501970895FC01918D828D98173E
:1002B00061F0A28DAE0FBF2FB11D5D968C91928D16
:1002C0009F5F9F73928F90E008958FEF9FEF089547
:1002D000FC01918D828D981731F0828DE80FF11D10
:1002E000858D90E008958FEF9FEF0895FC01918D2B
:1002F000228D892F90E0805C9F4F821B91098F7324
:10030000992708958BEA91E00E94760121E0892BDC
:1003100009F420E0822F089580E090E0892B29F0F5
:100320000E94820181110C9400000895FC01A48DAB
:10033000A80FB92FB11DA35ABF4F2C91848D90E007
:1003400001968F739927848FA689B7892C93A089EA
:10035000B1898C91837080648C93938D848D981374
:1003600006C00288F389E02D80818F7D8083089507
:10037000EF92FF920F931F93CF93DF93EC0181E0F5
:10038000888F9B8D8C8D98131AC0E889F98980819C
:1003900085FF15C09FB7F894EE89FF896083E889CF
:1003A000F98980818370806480839FBF81E090E0C1
:1003B000DF91CF911F910F91FF90EF900895F62E4E
:1003C0000B8D10E00F5F1F4F0F731127E02E8C8DE8
:1003D0008E110CC00FB607FCFACFE889F98980812D
:1003E00085FFF5CFCE010E949601F1CFEB8DEC0F8A
:1003F000FD2FF11DE35AFF4FF0829FB7F8940B8F4A
:10040000EA89FB8980818062CFCFCF93DF93EC01B3
:10041000888D8823B9F0AA89BB89E889F9898C91EC
:1004200085FD03C0808186FD0DC00FB607FCF7CFA8
:100430008C9185FFF2CF808185FFEDCFCE010E94A8
:100440009601E9CFDF91CF91089520914C02309130
:100450004D02232B39F421E0FC018081882361F0D7
:1004600020E00AC0BC0180914802909149020E949C
:100470002E0721E0892BA1F7822F0895CF93DF93D8
:10048000EC0188819981009711F00E94DF051982A3
:1004900018821D821C821B821A82DF91CF910895DF
:1004A0000F931F93CF93DF93EC018881998100977D
:1004B00059F02A813B812617370730F081E0DF9120
:1004C000CF911F910F9108958B016F5F7F4F0E9415
:1004D0006806009759F0998388831B830A832C81CF
:1004E0003D81232B59F7FC011082E8CF80E0E7CF54
:1004F000EF92FF920F931F93CF93DF93EC017B0159
:100500008A01BA010E94500281110BC0CE010E94E3
:100510003E02CE01DF91CF911F910F91FF90EF909E
:1005200008951D830C83B701888199810E94370744
:10053000F0CF1F920F920FB60F9211242F933F937B
:100540008F939F93AF93BF938091A3019091A40148
:10055000A091A501B091A6013091A20123E0230F43
:100560002D3758F50196A11DB11D2093A20180934E
:10057000A3019093A401A093A501B093A60180913B
:10058000A7019091A801A091A901B091AA0101969B
:10059000A11DB11D8093A7019093A801A093A9016B
:1005A000B093AA01BF91AF919F918F913F912F91ED
:1005B0000F900FBE0F901F90189526E8230F0296FC
:1005C000A11DB11DD2CF1F920F920FB60F92112411
:1005D0002F933F934F935F936F937F938F939F934B
:1005E000AF93BF93EF93FF938BEA91E00E94960144
:1005F000FF91EF91BF91AF919F918F917F916F91FB
:100600005F914F913F912F910F900FBE0F901F90D0
:1006100018951F920F920FB60F9211242F938F935C
:100620009F93EF93FF93E091BB01F091BC01808118
:10063000E091C101F091C20182FD1BC090818091C7
:10064000C4018F5F8F732091C501821741F0E09143
:10065000C401F0E0E555FE4F958F8093C401FF91F2
:10066000EF919F918F912F910F900FBE0F901F9040
:1006700018958081F4CFEBEAF1E01382128288EEC4
:1006800093E0A0E0B0E084839583A683B7838AE0FB
:1006900091E09183808385EC90E09587848784EC5A
:1006A00090E09787868780EC90E0918B808B81EC3F
:1006B00090E0938B828B82EC90E0958B848B86EC20
:1006C00090E0978B868B118E128E138E148EE8E439
:1006D000F2E011821082138212821582148250E09D
:1006E00040E06AE171E0CF010C947802CF93DF9390
:1006F000CDB7DEB728970FB6F894DEBF0FBECDBFDB
:10070000789484B5826084BD84B5816084BD85B5EC
:10071000826085BD85B5816085BD80916E008160F8
:1007200080936E001092810080918100826080939E
:1007300081008091810081608093810080918000A0
:100740008160809380008091B10084608093B100CB
:100750008091B00081608093B00080917A008460C5
:1007600080937A0080917A00826080937A008091F1
:100770007A00816080937A0080917A00806880930B
:100780007A001092C100E091BB01F091BC0182E0BF
:100790008083E091B701F091B8011082E091B90136
:1007A000F091BA018FEC80831092C301E091BF01F8
:1007B000F091C00186E08083E091BD01F091BE011F
:1007C000808180618083E091BD01F091BE018081D4
:1007D00088608083E091BD01F091BE0180818068D6
:1007E0008083E091BD01F091BE0180818F7D808387
:1007F00082E00E94880083E00E94880084E00E94DA
:10080000880090E0E92E90E0F92E8BEA91E00E94BA
:100810007601892B09F475C00E94F3002B013C017D
:1008200083E0882E912CA12CB12C0E94F300641936
:10083000750986099709683E734081059105A8F3FB
:1008400021E0821A9108A108B10888EE480E83E0E1
:10085000581E611C711C81149104A104B10429F774
:100860008BEA91E00E945401182F1A8219821C828F
:100870001B821E821D82609148027091490261159F
:10088000710541F040914C0250914D02CE0101960C
:100890000E9478021F8318860D811E810F5F1F4FF3
:1008A000B801CE0101960E945002882301F12981EE
:1008B0003A818D819E81BE01695F7F4F820F931FB8
:1008C0000E9437071E830D8369817A816115710546
:1008D00099F04D815E8188E492E00E9478028981DE
:1008E0009A81009709F491CF0E94DF058ECFCE0147
:1008F00001960E943E02E8CF88E492E00E943E0208
:10090000EECF40914C0250914D024115510549F1F5
:1009100060914802709149028BEA91E00E941801AF
:1009200042E050E068E171E08BEA91E00E9418013A
:100930008BE191E00E94250261E0811107C08FE206
:1009400091E00E9425028823C1F060E082E00E94CD
:10095000A70050E040E06AE171E088E492E00E9484
:100960007802E114F10409F450CF0E948201882337
:1009700009F44BCF0E94000048CF84E491E00E942C
:10098000250261E0811107C089E591E00E942502FE
:10099000882319F060E083E0DACF8FE691E00E94CF
:1009A0002502882319F061E084E0D1CF8BE791E044
:1009B0000E942502882311F060E0F6CF88E891E0DC
:1009C0000E942502882349F061E082E00E94A7008E
:1009D00061E083E00E94A700E6CF84E991E00E94F5
:1009E0002502882309F4B5CF60E082E00E94A700C9
:1009F00060E083E00E94A700DFCF809148029091E1
:100A00004902009711F00C94DF0508952F923F9250
:100A10004F925F926F927F928F929F92AF92BF920E
:100A2000CF92DF92EF92FF920F931F93CF93DF93BA
:100A3000CDB7DEB7CA1BDB0B0FB6F894DEBF0FBE17
:100A4000CDBF09942A88398848885F846E847D8464
:100A50008C849B84AA84B984C884DF80EE80FD8066
:100A60000C811B81AA81B981CE0FD11D0FB6F894DC
:100A7000DEBF0FBECDBFED010895EE0FFF1F059045
:100A8000F491E02D09940F931F93CF93DF9382305D
:100A9000910510F482E090E0E0915002F091510253
:100AA00030E020E0B0E0A0E0309799F42115310566
:100AB00009F44AC0281B390B24303105D8F58A8146
:100AC0009B816115710589F1FB0193838283FE018E
:100AD00011C0408151810281138148175907E0F00C
:100AE0004817590799F4109761F012960C931297D2
:100AF00013961C933296CF01DF91CF911F910F91E6
:100B000008950093500210935102F4CF211531053E
:100B100051F04217530738F0A901DB019A01BD01DA
:100B2000DF01F801C1CFEF01F9CF9093510280931B
:100B30005002CDCFFE01E20FF31F8193919322501B
:100B4000310939832883D7CF20914E0230914F024B
:100B5000232B41F4209102013091030130934F0285
:100B600020934E02209100013091010121153105A1
:100B700041F42DB73EB74091040150910501241B6B
:100B8000350BE0914E02F0914F02E217F307A0F40B
:100B90002E1B3F0B2817390778F0AC014E5F5F4FD3
:100BA0002417350748F04E0F5F1F50934F024093B4
:100BB0004E02819391939FCFF0E0E0E09CCFCF93E2
:100BC000DF930097E9F0FC01329713821282A09123
:100BD0005002B0915102ED0130E020E01097A1F4F5
:100BE00020813181820F931F20914E0230914F025C
:100BF0002817390709F061C0F0934F02E0934E02C5
:100C0000DF91CF910895EA01CE17DF07E8F54A8119
:100C10005B819E0141155105B1F7E901FB83EA8330
:100C200049915991C40FD51FEC17FD0761F48081DC
:100C300091810296840F951FE901998388838281AF
:100C400093819B838A83F0E0E0E012968D919C91E2
:100C500013970097B9F52D913C911197CD0102960C
:100C6000820F931F20914E0230914F0228173907AF
:100C700039F6309751F51092510210925002B0930C
:100C80004F02A0934E02BCCFD383C28340815181D7
:100C9000840F951FC817D90761F44E5F5F4F888195
:100CA0009981480F591F518340838A819B81938387
:100CB00082832115310509F0B0CFF0935102E09302
:100CC00050029ECFFD01DC01C0CF13821282D7CF2C
:100CD000B0E0A0E0EEE6F6E00C9408058C01009789
:100CE00051F4CB010E9443058C01C801CDB7DEB79A
:100CF000E0E10C942405FC01E60FF71F9C01225053
:100D00003109E217F30708F49DC0D901CD91DC91B8
:100D10001197C617D70798F0C530D10530F3CE012B
:100D200004978617970708F3C61BD70B2297C19322
:100D3000D1936D937C93CF010E94DF05D6CF5B01E9
:100D4000AC1ABD0A4C018C0E9D1EA0915002B091B0
:100D50005102512C412CF12CE12C109731F580914E
:100D60004E0290914F028815990509F05CC0461615
:100D7000570608F058C0809100019091010100973A
:100D800041F48DB79EB74091040150910501841B39
:100D9000950BE817F90708F055C0F0934F02E09360
:100DA0004E02F90171836083A0CF8D919C911197C0
:100DB00012966C90129713967C901397A815B9050C
:100DC00059F56C0142E0C40ED11CCA14DB0420F1B9
:100DD000AC014A195B09DA011296159780F062821C
:100DE000738251834083D9016D937C93E114F104A4
:100DF00071F0D7011396FC93EE93129776CF22965B
:100E00008C0F9D1FF90191838083F301EFCFF09345
:100E10005102E093500269CF4816590608F42C019C
:100E20007D01D3019ACFCB010E9443057C0100973D
:100E300049F0AE01B8010E942507C8010E94DF05F4
:100E4000870153CF10E000E050CFFB01DC0102C06E
:100E500001900D9241505040D8F70895FB01DC01FC
:100E60008D91019080190110D9F3990B0895FB0120
:100E7000DC0101900D920020E1F7089510E0CDE52E
:100E8000D0E004C0FE010E943D052196CE35D10779
:060E9000C9F7F894FFCF42
:100E960000005202800000000000B8011801450160
:100EA60005027601540168010D0A007475726E2000
:100EB6006F6E206669727374206C6967687400745B
:100EC60075726E206F6666206669727374206C692F
:100ED600676874007475726E206F6E207365636F39
:100EE6006E64206C69676874007475726E206F6634
:100EF60066207365636F6E64206C6967687400743E
:100F060075726E206F6E2066616E007475726E204B
:100F16006F66662066616E007475726E206F6E2055
:100F2600616C6C007475726E206F666620616C6C05
:020F36000000B9
:00000001FF
